:020000043400C6
:10040000000020341D290034990800349B08003472
:100410009D0800349F080034A1080034A30800346C
:1004200000000000000000000000000085270034EC
:10043000A5080034000000003D27003401250034E9
:10044000792900340000000079290034792900342A
:100450007929003479290034792900347929003444
:10046000792900340000000079290034792900340A
:1004700079290034792900347929003400000000FA
:1004800079290034000000007929003479290034EA
:100490007929003479290034792900347929003404
:1004A00079290034792900347929003479290034F4
:1004B00079290034792900347929003479290034E4
:1004C00079290034792900347929003479290034D4
:1004D00079290034792900347929003479290034C4
:1004E000792900340000000079290034792900348A
:1004F00079290034792900347929003479290034A4
:100500007929003400000000000000000000000015
:100510007929003479290034792900347929003483
:100520007929003479290034792900347929003473
:100530007929003479290034792900347929003463
:100540007929003479290034792900347929003453
:0C07400000000000792900347929003401
:10074C0010B5054C237833B9044B13B10448AFF3FF
:10075C0000800123237010BD10000834000000003D
:10076C00F029003408B5034B1BB103490348AFF320
:10077C00008008BD0000000014000834F02900348B
:10078C0000B583B00C4B4FF40072C3F8582AD3F861
:10079C0058320193019B40F201324FF480610748BB
:1007AC0000F013FA40F201320221054800F00DFA74
:1007BC0003B05DF804FB00BF00800256001802561F
:1007CC000038025630B587B000240194029403948B
:1007DC00049405940D4B4FF48042C3F85C2AD3F873
:1007EC005C320093009B0A4D22460221284600F001
:1007FC00E7F902230193012302930394049401A9C2
:10080C00284600F0D3F807B030BD00BF0080025678
:10081C000038025608B500F02DFAFFF7B1FFFFF7CC
:10082C00D1FF01F0CBFF00F021F801F0E1FFFEE772
:10083C0038B5002411E00C4D01220221284600F0AD
:10084C00BFF9C82002F054F800220221284600F01B
:10085C00B7F9C82002F04CF80134042CEBDD012070
:10086C0002F046F8FBE700BF0038025608B5044A10
:10087C000021044801F0DAFF034B186008BD00BFEB
:10088C002C2A00343D0800342C000834FEE7FEE727
:10089C00FEE7FEE7FEE7FEE7704708B500F0B2F9A9
:1008AC0000F0B8F908BD0000C0B26DED81CF39B1D0
:1008BC0020B1012804D1064A116001E0054A1160FB
:1008CC009FEC100A9FE80F90FDEC81CF744700BF9E
:1008DC003000083434000834002808DB0901C9B2A0
:1008EC0000F1604000F5614080F80013704700F0A3
:1008FC000F000901C9B2014B1954704714ED00E007
:10090C0000B500F00700C0F1070CBCF1040F28BFC4
:10091C004FF0040C031D062B0FD9C31E4FF0FF3EE6
:10092C000EFA0CF021EA000199400EFA03FE22EABD
:10093C000E0241EA02005DF804FB0023EEE7000022
:10094C00074AD36823F4E0631B041B0C000200F479
:10095C00E060034343F0BF6343F40033D36070475C
:10096C0000ED00E010B50446054BD868C0F302203A
:10097C00FFF7C6FF01462046FFF7AEFF10BD00BFD4
:10098C0000ED00E00138B0F1807F0BD24FF0E02396
:10099C005861054AF02182F8231000209861072243
:1009AC001A6170470120704700ED00E0F0B500239C
:1009BC0069E085685E000324B44025EA0405CC6830
:1009CC00B4402C438460456825EA0C054C68C4F39C
:1009DC0000149C402C43446067E08C68012C69D166
:1009EC0077E0DD08083550F8254003F0070C4FEA96
:1009FC008C0C4FF00F0E0EFA0CFE24EA0E0E0C6946
:100A0C0004FA0CF444EA0E0440F8254066E00B248A
:100A1C0000E0002404FA0EF42C43674D0CF1180C82
:100A2C0045F82C40D5F88050D44325EA02064F688F
:100A3C0017F4803F01D042EA05065F4DC5F880608F
:100A4C00D5F8845004EA05064F6817F4003F01D02E
:100A5C0042EA0506584DC5F884602D6804EA05067F
:100A6C004F6817F4801F01D042EA0506524D2E60E4
:100A7C006D682C404E6816F4001F01D042EA050444
:100A8C004D4A546001330A6832FA03F400F0928044
:100A9C004FF0010C0CFA03FC1CEA0202F2D04C6879
:100AAC0004F00304013C012C83D94C6804F00304CA
:100ABC00032C92D0C4684FEA430E4FF0030C0CFA8F
:100ACC000EFC24EA0C0C8C6804FA0EF444EA0C04B8
:100ADC00C4604C6804F00304022C82D004684FEA12
:100AEC00430E4FF0030C0CFA0EFC24EA0C0C4C6871
:100AFC0004F0030404FA0EF444EA0C0404604C6899
:100B0C0014F4403FBED04FEA930C0CF118052A4C5C
:100B1C0054F8255003F0030E4FEACE0E0F2404FABE
:100B2C000EF425EA0405254CA0423FF472AF04F5FF
:100B3C008064A0422AD004F58064A04228D004F539
:100B4C008064A04226D004F58064A04224D004F531
:100B5C008064A04222D004F58064A04220D004F529
:100B6C008064A0421ED004F5C054A0421CD004F5F1
:100B7C008064A0421AD004F58064A04218D004F519
:100B8C008064A0423FF443AF102443E7012441E7C3
:100B9C0002243FE703243DE704243BE7052439E71F
:100BAC00062437E7072435E7082433E7092431E71F
:100BBC000A242FE7F0BD00BF005002560000025679
:100BCC000AB18161704781627047036B40F2011C6E
:100BDC003CEA020C05D012F4807F03D023EA010317
:100BEC0000E00B430363436B40F2022C3CEA020C23
:100BFC0005D012F4007F03D023EA010300E00B437D
:100C0C0043637047024AD36B43F48073D3637047DA
:100C1C0000480256024AD36B43F40073D363704707
:100C2C0000480256104B1B780BB90120704710B5C9
:100C3C0004464FF47A70B0FBF3F30C4A1068B0FB27
:100C4C00F3F0FFF79FFE68B90F2C01D901200AE0E1
:100C5C00002221464FF0FF30FFF784FE044B1C604E
:100C6C00002000E0012010BD00000834080008340A
:100C7C000400083410B50320FFF762FE00F05CF8A6
:100C8C000020FFF7CFFF10B10124204610BD044611
:100C9C00FFF703FEF9E700000F4AD2F88C3043F45B
:100CAC004063C2F88C3002F50072536B23F0E053B2
:100CBC0043F080535363094B0022C3F88022C3F8DE
:100CCC008422C3F88822C3F88C22C3F89022C3F87C
:100CDC009422C3F89822704700ED00E000E100E098
:100CEC0010B5FFF7D9FF104A104B9360104B012140
:100CFC00C3F8781AD3F8780294680E480461006936
:100D0C0003F58053C3F87812D2F8883043F470039B
:100D1C00C2F8883002F50032D2F8883043F4700300
:100D2C00C2F8883010BD00BF00ED00E000040034B4
:100D3C000080025600800056844B1B6A03F440135B
:100D4C00B3F5001F00F0FE800ED8002B48D0B3F591
:100D5C00801F07D17D4B5B6C13F4007F40F0F48057
:100D6C007B4B43E0002341E0B3F5401F36D130B557
:100D7C00764BD3F8C44004F04054B4F1805F38D0C3
:100D8C00B4F1005F4DD0002C63D1D3F8802002F079
:100D9C00E04312F0006574D1C2F30554C2F30B2288
:100DAC006A49D1F8840020F07F40D1F88810C1F353
:100DBC00C26CC1F30261B3F1005F00F0BD8079D861
:100DCC00002B00F0B180B3F1805F71D15F4B5B6C95
:100DDC0013F4007F40F0B4805D4B6FE0002305E01E
:100DEC005A4B9A6CC2F3C1125A4BD3405A4A1360F5
:100DFC007047564BD3F8902002F0E04312F0006598
:100E0C0044D1C2F30554C2F30B225049D1F89400DB
:100E1C0020F07F40D1F89810C1F3C26CC1F302618D
:100E2C00C9E74A4BD3F8A02002F0E04312F000656A
:100E3C0032D1C2F30554C2F30B224449D1F8A400B9
:100E4C0020F07F40D1F8A810C1F3C26CC1F302614D
:100E5C00B1E73E4BD3F8B02002F0E04312F000654E
:100E6C0020D1C2F30554C2F30B223849D1F8B40097
:100E7C0020F07F40D1F8B810C1F3C26CC1F302610D
:100E8C0099E72146A4462046224694E700218C4649
:100E9C0008460A460C468EE700218C4608460A4650
:100EAC000C4688E700218C4608460A460C4682E729
:100EBC00002303E0B3F1405F40D1284B4DBB07EE5C
:100ECC00903AF8EE677A07EE102AB8EE477A06EEFB
:100EDC00900AF8EE666A9FED226A66EE866A37EE35
:100EEC00267A67EE877A07EE104AB8EE477AC7EE95
:100EFC00876A07EE90CAB8EE677A07EE901AF8EE9A
:100F0C00677A27EE277AC6EE877AFCEEE77A17EE39
:100F1C00903A0E4AD2F8C420C2F307420132B3FB16
:100F2C00F2F30D4A136030BD084B9B6CC3F3C11E2A
:100F3C00084B23FA0EF3C1E70A4BBFE70023BDE7CA
:100F4C00094BBBE7074B51E7074B4FE700800256B5
:100F5C0000093D000090D003080008340080BB005D
:100F6C0000008033006CDC020024F4006DED81CFB6
:100F7C0000B5FFF7E1FE054B18685DF804EB9FEC3C
:100F8C00100A9FE80E90FDEC81CF744708000834DE
:100F9C00104A12F0070F1AD0D11D21F00701C1F52C
:100FAC00005313440A460C4802600021416013446C
:100FBC00083B23F007030948036059601960991A2C
:100FCC0051601360064B1960064B196070474FF463
:100FDC000053E8E7540008344C0008344800083447
:100FEC00400008344400083410B5194B19461B68EE
:100FFC008342FBD3164A914208D0164A914202D33F
:10100C00154A914202D901F081FBFEE74A6801EBD7
:10101C00020C844509D0426800EB020C634509D0F0
:10102C000360884200D0086010BD406802444A60EA
:10103C000846F0E7094C2468A34206D05B681A44C2
:10104C0042600B681B680360EBE70460E9E700BFD4
:10105C004C00083454000834532008344800083439
:10106C0070B5044670B110F1090F0AD8083414F0A9
:10107C00070307D0C3F10802093BA3421AD3144457
:10108C0000E0002400F0BEFC3E4B1B68A3B1002C1A
:10109C0067DB002C67D03C4B1E68A6426BD33B4BE6
:1010AC001B683B4A934202D33A4A93421DD901F042
:1010BC002DFBFEE70024E5E7FFF76AFFE7E70021D9
:1010CC00184679B113465A68A24210D21A6872B106
:1010DC002F498A42F3D32F498A4201D90021EFE7E5
:1010EC000121EDE701F012FBFEE72848EBE7254A6A
:1010FC0012689A4241D005680835254A954202D3B8
:10110C00244A954202D901F001FBFEE71A680260FD
:10111C005A68A2421FD3121B102A08D9191911F0B0
:10112C00070F1BD14A605C6002681A5101605A6853
:10113C00B61A15490E60184909688E4201D2164933
:10114C000E6042F000425A6000221A60134A136883
:10115C000133136008E001F0D9FAFEE701F0D6FA8A
:10116C00FEE7002500E0002500F010FD15F0070F4C
:10117C0005D1284670BD0025F6E70025F4E701F0FF
:10118C00C5FAFEE748000834440008344C00083423
:10119C005400083453200834400008343C00083410
:1011AC0078B338B50446A0F10805164B9D420CD314
:1011BC00154B9D4209D850F8043C002B08DA50F826
:1011CC00082C42B101F0A2FAFEE701F09FFAFEE70B
:1011DC0001F09CFAFEE723F0004340F8043C00F0D9
:1011EC0011FC54F8041C094A13680B44136028467C
:1011FC00FFF7FAFE064A13680133136000F0C6FCD1
:10120C0038BD704754000834532008344400083467
:10121C003800083400F1080343604FF0FF3282605D
:10122C00C3600361002303607047002303617047B0
:10123C0030B40D68B5F1FF3F11D000F108031C4626
:10124C005B681A68AA42FAD963684B6099608C6033
:10125C006160086103680133036030BC7047046946
:10126C00F2E70369416882688A60416851605A6894
:10127C00824205D00022026118680138186070475C
:10128C0082685A60F6E710B5044601F011F9A36BB9
:10129C0023B9012401F01AF9204610BD0024F9E706
:1012AC000346026C6AB110B50846D9681144D9607E
:1012BC009C68A14201D31968D960D96801F084FBFC
:1012CC0010BD704738B5054601F0F2F895F8454069
:1012DC0064B201E0013C64B2002C0ADD6B6A43B1DC
:1012EC0005F1240000F086FD0028F3D000F048FE44
:1012FC00F0E7FF2385F8453001F0E8F801F0D8F865
:10130C0095F8444064B201E0013C64B2002C0ADD63
:10131C002B6943B105F1100000F06CFD0028F3D0EF
:10132C0000F02EFEF0E7FF2385F8443001F0CEF8F4
:10133C0038BD38B560B10D460446C36B2BB1026C99
:10134C000021A2FB032333B939B101F0DFF9FEE729
:10135C0001F0DCF9FEE70121F6E701F0A9F82368BA
:10136C00E26B216C01FB0230A0600020A063636083
:10137C00013A02FB0133E360FF2384F8443084F824
:10138C00453075B923691BB901F0A0F8012038BDAF
:10139C0004F1100000F02EFD0028F5D001F07CF8CF
:1013AC00F2E704F11000FFF735FF04F12400FFF71A
:1013BC0031FFE9E738B51D46049C0B4649B924605A
:1013CC00E063236401212046FFF7B3FF84F84C50FF
:1013DC0038BD2260F4E710B584B033B11C4608B1B7
:1013EC0032B139B901F092F9FEE701F08FF9FEE75D
:1013FC000029F7D150230393039B502B02D001F00B
:10140C0085F9FEE7039B012384F8463000949DF890
:10141C001830FFF7CFFF204604B010BDF0B585B0F3
:10142C00019260B10F46044661B100F0AFFD064673
:10143C0070B9019B002B44D001F068F9FEE701F074
:10144C0065F9FEE7036C002BEFD001F05FF9FEE7C6
:10145C00002636E039462046FFF722FF013DA56302
:10146C00236923B901F032F8012005B0F0BD04F175
:10147C00100000F0BFFC0028F4D001F00DF8F1E7EB
:10148C0001F024F80020F0E702A800F027FD012667
:10149C0021E0002384F8443029E0002384F845300F
:1014AC002BE02046FFF70EFF00F070FB09E0204612
:1014BC00FFF708FF00F06AFB2046FFF7E4FE002868
:1014CC0037D100F0F5FFA56B002DC3D1019B002B8C
:1014DC00D6D0002ED8D000F0F9FF00F093FA00F02F
:1014EC00E7FF94F844305BB2B3F1FF3FD1D094F8EE
:1014FC0045305BB2B3F1FF3FCFD000F0E7FF01A95D
:10150C0002A800F0F7FC0028D1D12046FFF7BBFE63
:10151C000028C6D0019904F1240000F035FC2046C7
:10152C00FFF7D0FE00F032FB0028CAD100F0B4FF68
:10153C00C7E7002099E7000010B520B1044601B3BD
:10154C000020034607E001F0E1F8FEE70D4800EB50
:10155C00C30014E00133072B10D80A4A02EBC30274
:10156C005268A242F2D00028F4D1064A52F8332035
:10157C00002AEFD1034800EBC300EBE708B1016090
:10158C00446010BD5420083470B504460D46164610
:10159C0000F08EFF94F844305BB2B3F1FF3F0DD0F6
:1015AC0094F845305BB2B3F1FF3F0BD000F08EFFE7
:1015BC00A36B5BB12046FFF785FE70BD002384F85A
:1015CC004430EDE7002384F84530EFE732462946F6
:1015DC0004F1240000F0EAFBECE70000074B1B6869
:1015EC001B6823B9064B4FF0FF321A607047034B50
:1015FC001B68DB681A68024B1A607047BC250834FC
:10160C00542508342DE9F84380460D461646994674
:10161C00089F0A9C9200A521206B01F0A8F9226B6F
:10162C0006F18043013B02EB830626F007068DB1E1
:10163C004FF0000CBCF10F0F09D815F80C2004EB7F
:10164C000C0383F8342012B10CF1010CF2E70023E7
:10165C0084F84330372F02D901F058F8FEE7E762DF
:10166C00E764201DFFF7E1FD04F11800FFF7DDFD35
:10167C002461C7F13807A76164624B464246216B6F
:10168C00304600F055FF2060099B03B11C60BDE89B
:10169C00F8832DE9F04387B00F9F109D67B1044686
:1016AC00894690461E4655B15C230593059B5C2BE1
:1016BC0008D001F02BF8FEE701F028F8FEE701F066
:1016CC0025F8FEE7059B5C220021284601F04FF926
:1016DC002F63022385F85930002303930295119B45
:1016EC0001930E9B00933346424649462046FFF732
:1016FC0089FF284607B0BDE8F083000038B5002408
:10170C0007E004EB840293000E481844FFF782FDB7
:10171C000134372CF5D90C4D2846FFF77BFD0B4CCB
:10172C002046FFF777FD0A48FFF774FD0948FFF7DD
:10173C0071FD0948FFF76EFD084B1D60084B1C60DE
:10174C0038BD00BFE8250834D4250834C02508343A
:10175C00A42508349025083478250834BC25083491
:10176C00B825083410B5044600F0A2FE274A1368C9
:10177C0001331360264B1B685BB1264B1B686BB99E
:10178C00234B1B68DA6AE36A9A4207D8204B1C6029
:10179C0004E01F4B1C601368012B30D01E4A1368E9
:1017AC00013313606364E36A1C4A1268934201D9E3
:1017BC001A4A13601A4A03EB830302EB83035B6838
:1017CC00A3609868E060211D41609960E36A03EBB7
:1017DC00830102EB8100606152F82110013103EBAF
:1017EC00830342F8231000F071FE0A4B1B682BB1E7
:1017FC00074B1B68DA6AE36A9A4203D310BDFFF702
:10180C007DFFCBE700F048FEF8E700BF74250834F5
:10181C00482A083468250834582508346C250834BF
:10182C00E82508342DE9F04385B006460F461446EA
:10183C0098469000FFF714FC8146F8B15C20FFF746
:10184C000FFC0546B0B15C22002101F090F8C5F800
:10185C0030900023039302950D9B01930C9B0093F6
:10186C004346224639463046FFF7CCFE284605B0A3
:10187C00BDE8F0834846FFF793FCF7E70546F5E72C
:10188C0010B5044690F8593033B1012B0BD0022B14
:10189C0008D000F03BFFFEE7006BFFF781FC204611
:1018AC00FFF77EFC10BDFFF77BFCFBE70F4B1B68C3
:1018BC00D3B110B500F0FCFD0D4BDB68DC68201DCE
:1018CC00FFF7CFFC0B4A1368013B1360074A136800
:1018DC00013B136000F0FAFD2046FFF7D1FF034BEC
:1018EC001B68002BE6D110BD704700BF8C25083457
:1018FC00902508347425083408B5FFF7D7FF034B3F
:10190C001B68012BF9D900F0C7FDF6E7E825083470
:10191C002DE9F04104460D46214B1E68214B1F68F2
:10192C00214BD3F80080214B1A68002182F85A1001
:10193C0018680430FFF795FCB4F1FF3F0DD0344428
:10194C001A4B1B685C60A6421DD9184B19680431F0
:10195C004046FFF76DFCBDE8F081002DEFD0144A36
:10196C005168124B1868816018688C68C4601868DC
:10197C00043060601868043088601B685A61136812
:10198C0001331360E7E7094B196804313846FFF758
:10199C004FFC084B1B68A342DDD9064B1C60DAE7F1
:1019AC0070250834BC250834B8250834482A083476
:1019BC00782508345425083410B586B000240594D5
:1019CC0005AC03940A9C0294099C0194089C009415
:1019DC00FFF75FFE08B1FFF7C5FE059806B010BD16
:1019EC0010B582B0059C0194049C0094FFF71AFF7B
:1019FC0020B1FFF7B7FE012002B010BD4FF0FF3051
:101A0C00FAE70000024A136801331360704700BF05
:101A1C004C250834014B1868704700BF70250834FA
:101A2C004F4B1B68002B40F0938070B54D4B1C68DE
:101A3C0001341C6094B94C4B1B681B6813B100F04B
:101A4C0065FEFEE7484A1168484B1868106019603B
:101A5C00474A136801331360FFF7C0FD454B1B6801
:101A6C00A34210D90020444B1B68DB6A03EB8303B1
:101A7C009A00424B9B58012B00D90120404B1B680C
:101A8C00002B6BD170BD002037E03A4B4FF0FF328A
:101A9C001A60E8E7374B1A60E5E7D968516042E015
:101AAC0000219962116801391160DA6A35490968B7
:101ABC008A4201D933490A60304902EB82024FEA6B
:101ACC00820C8C44DCF804209A609668DE607560A9
:101ADC009560DA6A02EB820C4FEA8C056E185E6137
:101AEC004D5901354FEA8C0C41F80C50DA6A224BF7
:101AFC001B68DB6A9A4200D901201B4B1B681B68D0
:101B0C00002BC2D0184B1B68DB68DB685A68944208
:101B1C00C0D35A699D68D968A9609D684D605168A9
:101B2C001D1DA942B9D000215961116801391160FC
:101B3C009A6A002AB9D0DE69196AB160DE694E6012
:101B4C00566803F118018E42AAD1196A5160A7E7B1
:101B5C000D4A13680133136000207047012091E790
:101B6C004C25083470250834BC250834B8250834B5
:101B7C005C25083454250834482A0834E8250834F0
:101B8C00602508346C2508346425083410B500F041
:101B9C008FFC454B1B685BB1434B1A68013A1A60CA
:101BAC001B68002B7AD1414B1B6853B9002476E09B
:101BBC0000F0ACFDFEE7196A516015E0D968516080
:101BCC0021E000233A4A1268002A4AD0384BDB68DD
:101BDC00DB689A6AD869196A8160D869486050686C
:101BEC0003F118018842E6D000219962116801398D
:101BFC0011605A699868D968816098684860516822
:101C0C00181D8142DAD00021596111680139116027
:101C1C00DA6A284909688A4201D926490A602649A4
:101C2C0002EB820201EB820252689A609468DC60DB
:101C3C0060609060DA6A02EB820001EB80045C6108
:101C4C0051F82000013002EB820241F82200D96ADF
:101C5C001A4A1268D26A9142B4D9194A0121116008
:101C6C00B0E70BB1FFF7BAFC164B1C6854B9144B18
:101C7C001C68A4B1114B1B6800F00EFC01240EE093
:101C8C00013C07D0FFF7CCFE0028F9D00C4B012209
:101C9C001A60F5E70B4B00221A60E8E7002400F00D
:101CAC0015FC204610BD00BF4C25083474250834A3
:101CBC00A42508346C250834E8250834482A08344F
:101CCC00602508346425083410B580B10446FFF74C
:101CDC0099FE084B1B68012B02D000F017FDFEE7A4
:101CEC0000212046FFF714FEFFF750FF08B900F063
:101CFC00D3FB10BD4C25083408B51E4B1B681BB11B
:101D0C001D4B01221A6008BD1B4B00221A601B4B95
:101D1C001B6803EB83018A0019498A582AB90BB155
:101D2C00013BF6E700F0F2FCFEE7084603EB83010B
:101D3C008A00024451684968516003EB830C4FEAF6
:101D4C008C020832024491420CD003EB83029100C6
:101D5C000B4A0A445268D1680A4A116007490B6061
:101D6C001368D0E76246910002460A44D16851607C
:101D7C00EBE700BF4C250834602508346C2508348B
:101D8C00E8250834482A083410B550B10C46064AE8
:101D9C0011681831FFF74CFA01212046FFF7B8FD06
:101DAC0010BD00F0B3FCFEE7482A083438B5D8B1B2
:101DBC008C461146054642680D4B1868C26118687E
:101DCC009468046218681830606018681830906065
:101DDC001B689D622B6801332B6009B14FF0FF3CEF
:101DEC006046FFF795FD38BD00F090FCFEE700BFA4
:101DFC00482A083410B5C368DB68002B4BD09A6AAC
:101E0C00D869196A8160D8694860516803F1180073
:101E1C00814243D000219962116801391160294A2D
:101E2C001268002A40D15A699868D968816098680C
:101E3C0048605168181D814233D0002159611168E6
:101E4C0001391160DA6A204909688A4201D91E49B0
:101E5C000A601E4902EB820201EB820252689A6010
:101E6C009468DC6060609060DA6A02EB820001EBDF
:101E7C0080045C6151F82000013002EB820241F8D1
:101E8C002200DA6A124B1B68DB6A9A4218D90120CD
:101E9C00104B186010BD00F039FCFEE7196A516058
:101EAC00B8E7D9685160C8E70B4A5168D9618C68AA
:101EBC001C62606088609A62116801311160E0E711
:101ECC000020E7E74C2508346C250834E825083455
:101EDC00482A083460250834A4250834034B1B68B1
:101EEC000360034B1B684360704700BF5C250834DC
:101EFC0070250834F8B5B8B10C460546B9B100F0F8
:101F0C00D7FA1C4B1A686B68D01A1B49096891F8F0
:101F1C005A1079B1184B1B68002283F85A200124FF
:101F2C0000F0D4FA2046F8BD00F0F0FBFEE700F01C
:101F3C00EDFBFEE72168B1F1FF3F18D00F4E36687C
:101F4C002F68B74205D0934203D8002323600124A5
:101F5C00E6E7814203D8002323600124E0E79B1AC3
:101F6C000B4423602846FFF7B9FF0024D8E7002470
:101F7C00D6E700BF70250834482A08345C2508349D
:101F8C00014B01221A60704760250834054B1B6811
:101F9C0033B1054B1B680BB1002070470220704712
:101FAC0001207047682508344C250834034B036026
:101FBC00034B0B6080231360704700BFF024083480
:101FCC00F022083430B58DB00023089309930A939E
:101FDC000B930E2B09D8174AD25C03F130016944DC
:101FEC0001F8102C0AB10133F3E730336B440024B1
:101FFC0003F8104C002C02DD01200DB030BD002583
:10200C000595069507AA06A905A8FFF7CFFF059B1E
:10201C000293069B019300952B46079A08A9064844
:10202C00FFF7CAFC054B43F8240008B10134E1E783
:10203C000020E2E7142A0034051900345025083436
:10204C0008B5FFF7BFFF012805D0B0F1FF3F15D051
:10205C000C4B1B6808BD00F0C7F90128F5D100F046
:10206C0055FB094B4FF0FF321A60084B01221A60E6
:10207C00074B00221A6000F0A3FAE9E700F046FBD8
:10208C00FEE700BF502A0034542508346825083474
:10209C0070250834034B0360034B0B6080231360E3
:1020AC00704700BF9422083494200834064B1A68F9
:1020BC0013682BB90123036023B9D36818687047E0
:1020CC000023F8E7002070474C2B083408B541601A
:1020DC00006191420CD8D21A83699A4201D3012033
:1020EC0008BD011D094B1868FFF7A2F80020F7E79F
:1020FC009A4201D2994206D2011D054B1868FFF78E
:10210C0097F80020ECE70120EAE700BF482B0834E1
:10211C004C2B083470B504460D46164604E0A369F2
:10212C001D44236A20469847A1692B463246294410
:10213C002046FFF7CBFF0028F1D170BD70B50546E6
:10214C000E460D4B1B68DB68DC68201DFFF789F819
:10215C0094F8283013F0040F07D123F0010384F80E
:10216C002830236A2046984770BD324629462046BF
:10217C00FFF7D0FFF5E700BF4C2B083408B505E09E
:10218C00DB684FF0FF311868FFF7D8FF054B1B6871
:10219C001A68002AF4D1044A1068024908601360D6
:1021AC0008BD00BF4C2B0834482B083438B5054605
:1021BC00FFF730FC0446074B1B68834205D800230D
:1021CC002B60044B1C60204638BDFFF7D7FF012362
:1021DC002B60F6E73C2B083470B582B006460C46F3
:1021EC00FFF710FC01A8FFF7E1FF019B03BB0546BD
:1021FC009CB9B0420AD22246711B0F4B1868FFF7EC
:10220C00C3F9FFF7C3FC80B102B070BDFFF7BEFC91
:10221C0029463046FFF792FFF6E7084A1268126823
:10222C000AB90124E7E71C46E5E700F035F9EBE7CE
:10223C00FFF7ACFCE8E700BF442B0834482B08340C
:10224C0030B587B0002302930393049305932DE0DC
:10225C0005990498039B984733E094F8283043F091
:10226C00010384F82830039BA169024619442046D7
:10227C00FFF72CFFD0B194F8283013F0040F07D1DE
:10228C0023F0010384F82830236A204698470DE098
:10229C00A3692A46039919442046FFF73BFFF3E74D
:1022AC0094F8283023F0010384F82830002202A986
:1022BC002A4B1868FFF7B2F800284CD0029B002B71
:1022CC00C6DB029B002BF1DB049C002CEED0636977
:1022DC0013B1201DFEF7C5FF01A8FFF767FF0546E8
:1022EC00029901390829E1D801A353F821F000BF64
:1022FC006722003467220034AD22003421230034DD
:10230C00472300346722003467220034AD220034A6
:10231C002123003494F8283043F0010384F828304A
:10232C000399A16131B10346024601442046FFF7EF
:10233C00CDFEBBE700F0EAF9FEE794F8283013F085
:10234C00020F04D023F0010384F82830AEE72046B6
:10235C00FEF726FFAAE707B030BD00BF442B0834B8
:10236C0000B583B001A8FFF7A1FE0199FFF734FF78
:10237C00FFF766FFF6E7000030B583B000F098F881
:10238C00114B1B681BB100F0A1F803B030BD0F4D11
:10239C002846FEF73FFF0E4C2046FEF73BFF0D4B49
:1023AC001D600D4B1C60002300930C4B0C4A10213C
:1023BC000A20FFF710F8044B18600028E3D00949F5
:1023CC00FFF7BAF8DFE700BF442B0834642B08345E
:1023DC00502B08344C2B0834482B08344C2A083426
:1023EC009C2A08341C2A003410B588B0FFF7C4FFAF
:1023FC000F4B1B68CBB100240594069407AA06A9C1
:10240C0005A8FFF747FE059B0293069B0193022349
:10241C0000932346079A07490748FFF7CDFA074B65
:10242C00186010B1012008B010BD00F06FF9FEE784
:10243C00442B0834242A00346D230034402B0834F8
:10244C0000B583B000230193074B1B68B3F1FF3F2A
:10245C0002D000F05BF9FEE700F058F9019B002B6D
:10246C00FCD003B05DF804FB0C0008344FF0E02204
:10247C000423136100239361054B1B680549A1FBE1
:10248C0003139B09013B536107231361704700BF82
:10249C0008000834D34D62104FF0E0234FF0805207
:1024AC00C3F8042DBFF34F8FBFF36F8F704700003D
:1024BC0008B500F02BF9044A136801331360BFF31D
:1024CC004F8FBFF36F8F08BD0C00083408B5084B55
:1024DC001B6833B1064B1A68013A1A601B681BB1B2
:1024EC0008BD00F013F9FEE7002000F01AF9F7E739
:1024FC000C00083410B500F009F90446FFF790FA07
:10250C0028B14FF0E0234FF08052C3F8042D204641
:10251C0000F007F910BD08B5836913F8023C662B6F
:10252C0002D000F0F3F8FEE700F0C8F808BD000098
:10253C0010B44FF0807440F8044C40F8082C1F4A3B
:10254C0040F80C2C4FF0123240F8102C4FF00332A4
:10255C0040F8142C4FF0023240F8182C4FF0013296
:10256C0040F81C2C40F8203C4FF0113340F8243C30
:10257C004FF0103340F8283C4FF0093340F82C3C16
:10258C004FF0083340F8303C4FF0073340F8343C00
:10259C004FF0063340F8383C4FF0053340F83C3CE4
:1025AC004FF0043340F8403C6FF0020340F8443CD9
:1025BC0040F8481C48385DF8044B70474D240034F3
:1025CC0010B582B04FF0E023D3F8083DD96A364AF3
:1025DC00914202D000F09AF8FEE79A6B334B9A4284
:1025EC0002D000F093F8FEE7002301934FF0E023B4
:1025FC004FF07F42C3F81C2DD3F81C3D1B0E8DF8F9
:10260C0003309DF8033003F05003294A137043B193
:10261C009DF80330DB4313F0500F0ED000F076F82A
:10262C00FEE700F073F8FEE7019B013301939DF880
:10263C0003305B00DBB28DF803309DF8033013F0F0
:10264C00800FF1D1019B082B29D0019BC3F107030B
:10265C00184A1360174A13681B02136003F4E063F3
:10266C0013604FF0E023D3F8202D42F47F02C3F81F
:10267C00202DD3F8202D42F07F42C3F8202D0024CA
:10268C00C3F81C4DFFF7F2FE0B4B1C6000F02EF84C
:10269C00FFF732FBFFF7D4FE204602B010BD054B0E
:1026AC0000221A60D6E700BF852700343D2700348E
:1026BC007C2B0834782B08340C0008340A4A116837
:1026CC00086806C881F30B88EFF3148151F00201FE
:1026DC0081F31488203080F30988BFF36F8F4FF09B
:1026EC00000080F311881047482A08340648006817
:1026FC00006880F3088862B661B6BFF34F8FBFF3F2
:10270C006F8F66DF00BF000008ED00E0EFF3118073
:10271C004FF0500181F31188BFF34F8FBFF36F8FD0
:10272C00704780F31188BFF34F8FBFF36F8F7047E3
:10273C00EFF30980EFF30B82734620E9FC0F0D4A8F
:10274C00116808604FF0500080F31188BFF34F8F71
:10275C00BFF36F8FFFF7D0FA4FF0000080F31188B2
:10276C00044A11680868B0E8FC0F82F30B8880F308
:10277C0009881847482A08341EF0040F0CBFEFF3E1
:10278C000880EFF309800149084700002325003435
:10279C0010B5EFF3058414B10124204610BDFFF7EA
:1027AC00F5FB0128F9D0EFF310832BB9EFF311846B
:1027BC00002CF2D00124F0E70124EEE708B5FFF776
:1027CC00E7FF48B9FFF7E2FB012808D1074B18686F
:1027DC0040B901221A6008BD6FF00500FBE74FF00D
:1027EC00FF30F8E74FF0FF30F5E700BF802B0834DF
:1027FC0008B5FFF7CDFF70B9FFF7C8FB01280DD165
:10280C00094B1B68012B0CD1074B02221A60FFF7F6
:10281C0017FC002008BD6FF00500FBE74FF0FF3000
:10282C00F8E74FF0FF30F5E7802B0834F0B587B0B0
:10283C0006460D46144600220592FFF7A9FF18BB69
:10284C0016B3002C39D02168A3692BB11846013B73
:10285C00372B02D9002018E01820636813F0010F01
:10286C0044D167699FB14FEA970EA36843B1E26800
:10287C005B2A05D9D4F810C0BCF1000F00D087B981
:10288C0043B14FF0FF331BB3059807B0F0BD4FF0C9
:10289C00800EEAE7E368B3B92369BBB14FF0FF33AD
:1028AC00F1E70293CDF804C0013800902B46724634
:1028BC003046FFF781F80590E6E721460023182003
:1028CC004FF0800EDFE74FF0FF33DCE70023DAE751
:1028DC0005AB0193013800902B4672463046FFF74A
:1028EC007FF80128D0D000230593CDE70020CCE75A
:1028FC0010B50446FFF74CFF38B90CB9002010BDD9
:10290C002046FFF7E1F90020F9E76FF00500F6E744
:10291C000F4880F30A880F488546FEF7E1F90E4808
:10292C000E490F4A002302E0D458C4500433C41893
:10293C008C42F9D30B4A0C4C002301E01360043297
:10294C00A242FBD300F01CF8FDF764FFFEE7000089
:10295C0000F81F3400002034000008341000083444
:10296C00802A003410000834842B0834FEE702441B
:10297C000346934200D1704703F8011BF9E70000AE
:10298C0070B50D4D00260D4C641BA410A64209D148
:10299C000B4D00260B4C00F025F8641BA410A6422E
:1029AC0005D170BD55F8043B01369847EEE755F854
:1029BC00043B01369847F2E7542A0034542A003479
:1029CC00542A0034582A00340A44431E914200D140
:1029DC00704710B511F8014B914203F8014FF9D132
:1029EC0010BD0000F8B500BFF8BC08BC9E4670478F
:0C29FC00F8B500BFF8BC08BC9E46704750
:102A080064656661756C745461736B0049444C4528
:102A180000000000546D725100000000546D7220D7
:102A280053766300082A003400000000000000000C
:102A38000000000000000000000200001800000074
:0C2A48000000000000000000370000004B
:042A540071070034D2
:042A58004D070034F2
:102A60007FE97FE9FEF788BA7FE97FE9FDF722BFBA
:102A70000000000000000000000000000000000056
:102A800001000000100000000090D003AAAAAAAA2A
:040000053400291D7D
:00000001FF
